{
  "_format": "hh-sol-artifact-1",
  "contractName": "ApiUsageMeter",
  "sourceName": "contracts/ApiUsageMeter.sol",
  "abi": [
    {
      "anonymous": false,
      "inputs": [
        {
          "indexed": true,
          "internalType": "uint256",
          "name": "apiId",
          "type": "uint256"
        },
        {
          "indexed": true,
          "internalType": "address",
          "name": "owner",
          "type": "address"
        },
        {
          "indexed": false,
          "internalType": "string",
          "name": "name",
          "type": "string"
        },
        {
          "indexed": false,
          "internalType": "uint256",
          "name": "price",
          "type": "uint256"
        }
      ],
      "name": "ApiRegistered",
      "type": "event"
    },
    {
      "anonymous": false,
      "inputs": [
        {
          "indexed": true,
          "internalType": "address",
          "name": "from",
          "type": "address"
        },
        {
          "indexed": false,
          "internalType": "uint256",
          "name": "amount",
          "type": "uint256"
        }
      ],
      "name": "PaymentReceived",
      "type": "event"
    },
    {
      "anonymous": false,
      "inputs": [
        {
          "indexed": true,
          "internalType": "bytes32",
          "name": "batchId",
          "type": "bytes32"
        },
        {
          "indexed": true,
          "internalType": "address",
          "name": "user",
          "type": "address"
        },
        {
          "indexed": true,
          "internalType": "uint256",
          "name": "apiId",
          "type": "uint256"
        },
        {
          "indexed": false,
          "internalType": "uint256",
          "name": "requestCount",
          "type": "uint256"
        },
        {
          "indexed": false,
          "internalType": "uint256",
          "name": "totalAmount",
          "type": "uint256"
        }
      ],
      "name": "PaymentSettled",
      "type": "event"
    },
    {
      "inputs": [
        {
          "internalType": "uint256",
          "name": "",
          "type": "uint256"
        }
      ],
      "name": "apis",
      "outputs": [
        {
          "internalType": "address",
          "name": "owner",
          "type": "address"
        },
        {
          "internalType": "string",
          "name": "name",
          "type": "string"
        },
        {
          "internalType": "uint256",
          "name": "pricePerRequest",
          "type": "uint256"
        },
        {
          "internalType": "bool",
          "name": "exists",
          "type": "bool"
        }
      ],
      "stateMutability": "view",
      "type": "function"
    },
    {
      "inputs": [
        {
          "internalType": "uint256",
          "name": "_apiId",
          "type": "uint256"
        }
      ],
      "name": "getApi",
      "outputs": [
        {
          "internalType": "address",
          "name": "owner",
          "type": "address"
        },
        {
          "internalType": "string",
          "name": "name",
          "type": "string"
        },
        {
          "internalType": "uint256",
          "name": "price",
          "type": "uint256"
        },
        {
          "internalType": "bool",
          "name": "exists",
          "type": "bool"
        }
      ],
      "stateMutability": "view",
      "type": "function"
    },
    {
      "inputs": [],
      "name": "nextApiId",
      "outputs": [
        {
          "internalType": "uint256",
          "name": "",
          "type": "uint256"
        }
      ],
      "stateMutability": "view",
      "type": "function"
    },
    {
      "inputs": [
        {
          "internalType": "bytes32",
          "name": "",
          "type": "bytes32"
        }
      ],
      "name": "paymentBatches",
      "outputs": [
        {
          "internalType": "address",
          "name": "user",
          "type": "address"
        },
        {
          "internalType": "uint256",
          "name": "apiId",
          "type": "uint256"
        },
        {
          "internalType": "uint256",
          "name": "requestCount",
          "type": "uint256"
        },
        {
          "internalType": "uint256",
          "name": "totalAmount",
          "type": "uint256"
        },
        {
          "internalType": "bool",
          "name": "paid",
          "type": "bool"
        }
      ],
      "stateMutability": "view",
      "type": "function"
    },
    {
      "inputs": [
        {
          "internalType": "string",
          "name": "_name",
          "type": "string"
        },
        {
          "internalType": "uint256",
          "name": "_pricePerRequest",
          "type": "uint256"
        }
      ],
      "name": "registerApi",
      "outputs": [
        {
          "internalType": "uint256",
          "name": "",
          "type": "uint256"
        }
      ],
      "stateMutability": "nonpayable",
      "type": "function"
    },
    {
      "inputs": [
        {
          "internalType": "bytes32",
          "name": "_batchId",
          "type": "bytes32"
        },
        {
          "internalType": "address",
          "name": "_user",
          "type": "address"
        },
        {
          "internalType": "uint256",
          "name": "_apiId",
          "type": "uint256"
        },
        {
          "internalType": "uint256",
          "name": "_requestCount",
          "type": "uint256"
        }
      ],
      "name": "settlePayment",
      "outputs": [],
      "stateMutability": "payable",
      "type": "function"
    }
  ],
  "bytecode": "0x608060405234801561001057600080fd5b5061136b806100206000396000f3fe6080604052600436106100555760003560e01c80630cb5d9781461005a5780636b667a5c1461009b5780639521504b146100db57806398fa2c4514610118578063af6e568914610134578063d690022b14610174575b600080fd5b34801561006657600080fd5b50610081600480360381019061007c9190610964565b61019f565b604051610092959493929190610a06565b60405180910390f35b3480156100a757600080fd5b506100c260048036038101906100bd9190610a85565b610202565b6040516100d29493929190610b42565b60405180910390f35b3480156100e757600080fd5b5061010260048036038101906100fd9190610cc3565b61035b565b60405161010f9190610d1f565b60405180910390f35b610132600480360381019061012d9190610d66565b6104a8565b005b34801561014057600080fd5b5061015b60048036038101906101569190610a85565b61082f565b60405161016b9493929190610b42565b60405180910390f35b34801561018057600080fd5b50610189610914565b6040516101969190610d1f565b60405180910390f35b60016020528060005260406000206000915090508060000160009054906101000a900473ffffffffffffffffffffffffffffffffffffffff16908060010154908060020154908060030154908060040160009054906101000a900460ff16905085565b6000606060008060008060008781526020019081526020016000206040518060800160405290816000820160009054906101000a900473ffffffffffffffffffffffffffffffffffffffff1673ffffffffffffffffffffffffffffffffffffffff1673ffffffffffffffffffffffffffffffffffffffff16815260200160018201805461028e90610dfc565b80601f01602080910402602001604051908101604052809291908181526020018280546102ba90610dfc565b80156103075780601f106102dc57610100808354040283529160200191610307565b820191906000526020600020905b8154815290600101906020018083116102ea57829003601f168201915b50505050508152602001600282015481526020016003820160009054906101000a900460ff161515151581525050905080600001518160200151826040015183606001519450945094509450509193509193565b6000806002600081548092919061037190610e5c565b91905055905060405180608001604052803373ffffffffffffffffffffffffffffffffffffffff1681526020018581526020018481526020016001151581525060008083815260200190815260200160002060008201518160000160006101000a81548173ffffffffffffffffffffffffffffffffffffffff021916908373ffffffffffffffffffffffffffffffffffffffff160217905550602082015181600101908161041f9190611050565b506040820151816002015560608201518160030160006101000a81548160ff0219169083151502179055509050503373ffffffffffffffffffffffffffffffffffffffff16817fa83e88270b3682a69338816a3e47c3550ee8aaec169313b18de0ee684ad4c6928686604051610496929190611122565b60405180910390a38091505092915050565b60008083815260200190815260200160002060030160009054906101000a900460ff1661050a576040517f08c379a00000000000000000000000000000000000000000000000000000000081526004016105019061119e565b60405180910390fd5b6001600085815260200190815260200160002060040160009054906101000a900460ff161561056e576040517f08c379a00000000000000000000000000000000000000000000000000000000081526004016105659061120a565b60405180910390fd5b60008060008481526020019081526020016000206002015482610591919061122a565b9050803410156105d6576040517f08c379a00000000000000000000000000000000000000000000000000000000081526004016105cd906112b8565b60405180910390fd5b6040518060a001604052808573ffffffffffffffffffffffffffffffffffffffff168152602001848152602001838152602001828152602001600115158152506001600087815260200190815260200160002060008201518160000160006101000a81548173ffffffffffffffffffffffffffffffffffffffff021916908373ffffffffffffffffffffffffffffffffffffffff16021790555060208201518160010155604082015181600201556060820151816003015560808201518160040160006101000a81548160ff02191690831515021790555090505060008084815260200190815260200160002060000160009054906101000a900473ffffffffffffffffffffffffffffffffffffffff1673ffffffffffffffffffffffffffffffffffffffff166108fc829081150290604051600060405180830381858888f1935050505015801561072c573d6000803e3d6000fd5b5080341115610788573373ffffffffffffffffffffffffffffffffffffffff166108fc823461075b91906112d8565b9081150290604051600060405180830381858888f19350505050158015610786573d6000803e3d6000fd5b505b828473ffffffffffffffffffffffffffffffffffffffff16867f6a8b366a95f8230ed456a46c0498d81bd373dce2ace2f019cd65665f4422a1d485856040516107d292919061130c565b60405180910390a48373ffffffffffffffffffffffffffffffffffffffff167f6ef95f06320e7a25a04a175ca677b7052bdd97131872c2192525a629f51be770826040516108209190610d1f565b60405180910390a25050505050565b60006020528060005260406000206000915090508060000160009054906101000a900473ffffffffffffffffffffffffffffffffffffffff169080600101805461087890610dfc565b80601f01602080910402602001604051908101604052809291908181526020018280546108a490610dfc565b80156108f15780601f106108c6576101008083540402835291602001916108f1565b820191906000526020600020905b8154815290600101906020018083116108d457829003601f168201915b5050505050908060020154908060030160009054906101000a900460ff16905084565b60025481565b6000604051905090565b600080fd5b600080fd5b6000819050919050565b6109418161092e565b811461094c57600080fd5b50565b60008135905061095e81610938565b92915050565b60006020828403121561097a57610979610924565b5b60006109888482850161094f565b91505092915050565b600073ffffffffffffffffffffffffffffffffffffffff82169050919050565b60006109bc82610991565b9050919050565b6109cc816109b1565b82525050565b6000819050919050565b6109e5816109d2565b82525050565b60008115159050919050565b610a00816109eb565b82525050565b600060a082019050610a1b60008301886109c3565b610a2860208301876109dc565b610a3560408301866109dc565b610a4260608301856109dc565b610a4f60808301846109f7565b9695505050505050565b610a62816109d2565b8114610a6d57600080fd5b50565b600081359050610a7f81610a59565b92915050565b600060208284031215610a9b57610a9a610924565b5b6000610aa984828501610a70565b91505092915050565b600081519050919050565b600082825260208201905092915050565b60005b83811015610aec578082015181840152602081019050610ad1565b60008484015250505050565b6000601f19601f8301169050919050565b6000610b1482610ab2565b610b1e8185610abd565b9350610b2e818560208601610ace565b610b3781610af8565b840191505092915050565b6000608082019050610b5760008301876109c3565b8181036020830152610b698186610b09565b9050610b7860408301856109dc565b610b8560608301846109f7565b95945050505050565b600080fd5b600080fd5b7f4e487b7100000000000000000000000000000000000000000000000000000000600052604160045260246000fd5b610bd082610af8565b810181811067ffffffffffffffff82111715610bef57610bee610b98565b5b80604052505050565b6000610c0261091a565b9050610c0e8282610bc7565b919050565b600067ffffffffffffffff821115610c2e57610c2d610b98565b5b610c3782610af8565b9050602081019050919050565b82818337600083830152505050565b6000610c66610c6184610c13565b610bf8565b905082815260208101848484011115610c8257610c81610b93565b5b610c8d848285610c44565b509392505050565b600082601f830112610caa57610ca9610b8e565b5b8135610cba848260208601610c53565b91505092915050565b60008060408385031215610cda57610cd9610924565b5b600083013567ffffffffffffffff811115610cf857610cf7610929565b5b610d0485828601610c95565b9250506020610d1585828601610a70565b9150509250929050565b6000602082019050610d3460008301846109dc565b92915050565b610d43816109b1565b8114610d4e57600080fd5b50565b600081359050610d6081610d3a565b92915050565b60008060008060808587031215610d8057610d7f610924565b5b6000610d8e8782880161094f565b9450506020610d9f87828801610d51565b9350506040610db087828801610a70565b9250506060610dc187828801610a70565b91505092959194509250565b7f4e487b7100000000000000000000000000000000000000000000000000000000600052602260045260246000fd5b60006002820490506001821680610e1457607f821691505b602082108103610e2757610e26610dcd565b5b50919050565b7f4e487b7100000000000000000000000000000000000000000000000000000000600052601160045260246000fd5b6000610e67826109d2565b91507fffffffffffffffffffffffffffffffffffffffffffffffffffffffffffffffff8203610e9957610e98610e2d565b5b600182019050919050565b60008190508160005260206000209050919050565b60006020601f8301049050919050565b600082821b905092915050565b600060088302610f067fffffffffffffffffffffffffffffffffffffffffffffffffffffffffffffffff82610ec9565b610f108683610ec9565b95508019841693508086168417925050509392505050565b6000819050919050565b6000610f4d610f48610f43846109d2565b610f28565b6109d2565b9050919050565b6000819050919050565b610f6783610f32565b610f7b610f7382610f54565b848454610ed6565b825550505050565b600090565b610f90610f83565b610f9b818484610f5e565b505050565b5b81811015610fbf57610fb4600082610f88565b600181019050610fa1565b5050565b601f82111561100457610fd581610ea4565b610fde84610eb9565b81016020851015610fed578190505b611001610ff985610eb9565b830182610fa0565b50505b505050565b600082821c905092915050565b600061102760001984600802611009565b1980831691505092915050565b60006110408383611016565b9150826002028217905092915050565b61105982610ab2565b67ffffffffffffffff81111561107257611071610b98565b5b61107c8254610dfc565b611087828285610fc3565b600060209050601f8311600181146110ba57600084156110a8578287015190505b6110b28582611034565b86555061111a565b601f1984166110c886610ea4565b60005b828110156110f0578489015182556001820191506020850194506020810190506110cb565b8683101561110d5784890151611109601f891682611016565b8355505b6001600288020188555050505b505050505050565b6000604082019050818103600083015261113c8185610b09565b905061114b60208301846109dc565b9392505050565b7f41504920646f6573206e6f742065786973740000000000000000000000000000600082015250565b6000611188601283610abd565b915061119382611152565b602082019050919050565b600060208201905081810360008301526111b78161117b565b9050919050565b7f426174636820616c726561647920706169640000000000000000000000000000600082015250565b60006111f4601283610abd565b91506111ff826111be565b602082019050919050565b60006020820190508181036000830152611223816111e7565b9050919050565b6000611235826109d2565b9150611240836109d2565b925082820261124e816109d2565b9150828204841483151761126557611264610e2d565b5b5092915050565b7f496e73756666696369656e74207061796d656e74000000000000000000000000600082015250565b60006112a2601483610abd565b91506112ad8261126c565b602082019050919050565b600060208201905081810360008301526112d181611295565b9050919050565b60006112e3826109d2565b91506112ee836109d2565b925082820390508181111561130657611305610e2d565b5b92915050565b600060408201905061132160008301856109dc565b61132e60208301846109dc565b939250505056fea2646970667358221220e148c9b8fcef0ae5a0f144ad7b262e47e5edfd312d88db3a9fc7438cc25c51b364736f6c63430008140033",
  "linkReferences": {},
  "deployedLinkReferences": {}
}